{
  "_format": "hh-sol-artifact-1",
  "contractName": "AccredChainCredential",
  "sourceName": "contracts/AccredChainCredential.sol",
  "abi": [
    {
      "inputs": [],
      "stateMutability": "nonpayable",
      "type": "constructor"
    },
    {
      "inputs": [],
      "name": "AccessControlBadConfirmation",
      "type": "error"
    },
    {
      "inputs": [
        {
          "internalType": "address",
          "name": "account",
          "type": "address"
        },
        {
          "internalType": "bytes32",
          "name": "neededRole",
          "type": "bytes32"
        }
      ],
      "name": "AccessControlUnauthorizedAccount",
      "type": "error"
    },
    {
      "inputs": [
        {
          "internalType": "address",
          "name": "sender",
          "type": "address"
        },
        {
          "internalType": "uint256",
          "name": "tokenId",
          "type": "uint256"
        },
        {
          "internalType": "address",
          "name": "owner",
          "type": "address"
        }
      ],
      "name": "ERC721IncorrectOwner",
      "type": "error"
    },
    {
      "inputs": [
        {
          "internalType": "address",
          "name": "operator",
          "type": "address"
        },
        {
          "internalType": "uint256",
          "name": "tokenId",
          "type": "uint256"
        }
      ],
      "name": "ERC721InsufficientApproval",
      "type": "error"
    },
    {
      "inputs": [
        {
          "internalType": "address",
          "name": "approver",
          "type": "address"
        }
      ],
      "name": "ERC721InvalidApprover",
      "type": "error"
    },
    {
      "inputs": [
        {
          "internalType": "address",
          "name": "operator",
          "type": "address"
        }
      ],
      "name": "ERC721InvalidOperator",
      "type": "error"
    },
    {
      "inputs": [
        {
          "internalType": "address",
          "name": "owner",
          "type": "address"
        }
      ],
      "name": "ERC721InvalidOwner",
      "type": "error"
    },
    {
      "inputs": [
        {
          "internalType": "address",
          "name": "receiver",
          "type": "address"
        }
      ],
      "name": "ERC721InvalidReceiver",
      "type": "error"
    },
    {
      "inputs": [
        {
          "internalType": "address",
          "name": "sender",
          "type": "address"
        }
      ],
      "name": "ERC721InvalidSender",
      "type": "error"
    },
    {
      "inputs": [
        {
          "internalType": "uint256",
          "name": "tokenId",
          "type": "uint256"
        }
      ],
      "name": "ERC721NonexistentToken",
      "type": "error"
    },
    {
      "anonymous": false,
      "inputs": [
        {
          "indexed": true,
          "internalType": "address",
          "name": "owner",
          "type": "address"
        },
        {
          "indexed": true,
          "internalType": "address",
          "name": "approved",
          "type": "address"
        },
        {
          "indexed": true,
          "internalType": "uint256",
          "name": "tokenId",
          "type": "uint256"
        }
      ],
      "name": "Approval",
      "type": "event"
    },
    {
      "anonymous": false,
      "inputs": [
        {
          "indexed": true,
          "internalType": "address",
          "name": "owner",
          "type": "address"
        },
        {
          "indexed": true,
          "internalType": "address",
          "name": "operator",
          "type": "address"
        },
        {
          "indexed": false,
          "internalType": "bool",
          "name": "approved",
          "type": "bool"
        }
      ],
      "name": "ApprovalForAll",
      "type": "event"
    },
    {
      "anonymous": false,
      "inputs": [
        {
          "indexed": false,
          "internalType": "uint256",
          "name": "_fromTokenId",
          "type": "uint256"
        },
        {
          "indexed": false,
          "internalType": "uint256",
          "name": "_toTokenId",
          "type": "uint256"
        }
      ],
      "name": "BatchMetadataUpdate",
      "type": "event"
    },
    {
      "anonymous": false,
      "inputs": [
        {
          "indexed": true,
          "internalType": "uint256",
          "name": "tokenId",
          "type": "uint256"
        },
        {
          "indexed": true,
          "internalType": "address",
          "name": "recipient",
          "type": "address"
        },
        {
          "indexed": true,
          "internalType": "address",
          "name": "issuer",
          "type": "address"
        },
        {
          "indexed": false,
          "internalType": "string",
          "name": "credentialType",
          "type": "string"
        }
      ],
      "name": "CredentialIssued",
      "type": "event"
    },
    {
      "anonymous": false,
      "inputs": [
        {
          "indexed": true,
          "internalType": "uint256",
          "name": "tokenId",
          "type": "uint256"
        }
      ],
      "name": "CredentialRevoked",
      "type": "event"
    },
    {
      "anonymous": false,
      "inputs": [
        {
          "indexed": false,
          "internalType": "uint256",
          "name": "_tokenId",
          "type": "uint256"
        }
      ],
      "name": "MetadataUpdate",
      "type": "event"
    },
    {
      "anonymous": false,
      "inputs": [
        {
          "indexed": true,
          "internalType": "bytes32",
          "name": "role",
          "type": "bytes32"
        },
        {
          "indexed": true,
          "internalType": "bytes32",
          "name": "previousAdminRole",
          "type": "bytes32"
        },
        {
          "indexed": true,
          "internalType": "bytes32",
          "name": "newAdminRole",
          "type": "bytes32"
        }
      ],
      "name": "RoleAdminChanged",
      "type": "event"
    },
    {
      "anonymous": false,
      "inputs": [
        {
          "indexed": true,
          "internalType": "bytes32",
          "name": "role",
          "type": "bytes32"
        },
        {
          "indexed": true,
          "internalType": "address",
          "name": "account",
          "type": "address"
        },
        {
          "indexed": true,
          "internalType": "address",
          "name": "sender",
          "type": "address"
        }
      ],
      "name": "RoleGranted",
      "type": "event"
    },
    {
      "anonymous": false,
      "inputs": [
        {
          "indexed": true,
          "internalType": "bytes32",
          "name": "role",
          "type": "bytes32"
        },
        {
          "indexed": true,
          "internalType": "address",
          "name": "account",
          "type": "address"
        },
        {
          "indexed": true,
          "internalType": "address",
          "name": "sender",
          "type": "address"
        }
      ],
      "name": "RoleRevoked",
      "type": "event"
    },
    {
      "anonymous": false,
      "inputs": [
        {
          "indexed": true,
          "internalType": "address",
          "name": "from",
          "type": "address"
        },
        {
          "indexed": true,
          "internalType": "address",
          "name": "to",
          "type": "address"
        },
        {
          "indexed": true,
          "internalType": "uint256",
          "name": "tokenId",
          "type": "uint256"
        }
      ],
      "name": "Transfer",
      "type": "event"
    },
    {
      "inputs": [],
      "name": "ADMIN_ROLE",
      "outputs": [
        {
          "internalType": "bytes32",
          "name": "",
          "type": "bytes32"
        }
      ],
      "stateMutability": "view",
      "type": "function"
    },
    {
      "inputs": [],
      "name": "DEFAULT_ADMIN_ROLE",
      "outputs": [
        {
          "internalType": "bytes32",
          "name": "",
          "type": "bytes32"
        }
      ],
      "stateMutability": "view",
      "type": "function"
    },
    {
      "inputs": [],
      "name": "ISSUER_ROLE",
      "outputs": [
        {
          "internalType": "bytes32",
          "name": "",
          "type": "bytes32"
        }
      ],
      "stateMutability": "view",
      "type": "function"
    },
    {
      "inputs": [
        {
          "internalType": "address",
          "name": "to",
          "type": "address"
        },
        {
          "internalType": "uint256",
          "name": "tokenId",
          "type": "uint256"
        }
      ],
      "name": "approve",
      "outputs": [],
      "stateMutability": "nonpayable",
      "type": "function"
    },
    {
      "inputs": [
        {
          "internalType": "address",
          "name": "owner",
          "type": "address"
        }
      ],
      "name": "balanceOf",
      "outputs": [
        {
          "internalType": "uint256",
          "name": "",
          "type": "uint256"
        }
      ],
      "stateMutability": "view",
      "type": "function"
    },
    {
      "inputs": [
        {
          "internalType": "uint256",
          "name": "",
          "type": "uint256"
        }
      ],
      "name": "credentials",
      "outputs": [
        {
          "internalType": "address",
          "name": "issuer",
          "type": "address"
        },
        {
          "internalType": "string",
          "name": "credentialType",
          "type": "string"
        },
        {
          "internalType": "uint256",
          "name": "issuedAt",
          "type": "uint256"
        },
        {
          "internalType": "uint256",
          "name": "expiresAt",
          "type": "uint256"
        },
        {
          "internalType": "bool",
          "name": "isRevoked",
          "type": "bool"
        },
        {
          "internalType": "bool",
          "name": "transferable",
          "type": "bool"
        }
      ],
      "stateMutability": "view",
      "type": "function"
    },
    {
      "inputs": [
        {
          "internalType": "uint256",
          "name": "tokenId",
          "type": "uint256"
        }
      ],
      "name": "getApproved",
      "outputs": [
        {
          "internalType": "address",
          "name": "",
          "type": "address"
        }
      ],
      "stateMutability": "view",
      "type": "function"
    },
    {
      "inputs": [
        {
          "internalType": "bytes32",
          "name": "role",
          "type": "bytes32"
        }
      ],
      "name": "getRoleAdmin",
      "outputs": [
        {
          "internalType": "bytes32",
          "name": "",
          "type": "bytes32"
        }
      ],
      "stateMutability": "view",
      "type": "function"
    },
    {
      "inputs": [
        {
          "internalType": "bytes32",
          "name": "role",
          "type": "bytes32"
        },
        {
          "internalType": "address",
          "name": "account",
          "type": "address"
        }
      ],
      "name": "grantRole",
      "outputs": [],
      "stateMutability": "nonpayable",
      "type": "function"
    },
    {
      "inputs": [
        {
          "internalType": "bytes32",
          "name": "role",
          "type": "bytes32"
        },
        {
          "internalType": "address",
          "name": "account",
          "type": "address"
        }
      ],
      "name": "hasRole",
      "outputs": [
        {
          "internalType": "bool",
          "name": "",
          "type": "bool"
        }
      ],
      "stateMutability": "view",
      "type": "function"
    },
    {
      "inputs": [
        {
          "internalType": "address",
          "name": "owner",
          "type": "address"
        },
        {
          "internalType": "address",
          "name": "operator",
          "type": "address"
        }
      ],
      "name": "isApprovedForAll",
      "outputs": [
        {
          "internalType": "bool",
          "name": "",
          "type": "bool"
        }
      ],
      "stateMutability": "view",
      "type": "function"
    },
    {
      "inputs": [
        {
          "internalType": "uint256",
          "name": "tokenId",
          "type": "uint256"
        }
      ],
      "name": "isExpired",
      "outputs": [
        {
          "internalType": "bool",
          "name": "",
          "type": "bool"
        }
      ],
      "stateMutability": "view",
      "type": "function"
    },
    {
      "inputs": [
        {
          "internalType": "uint256",
          "name": "tokenId",
          "type": "uint256"
        }
      ],
      "name": "isValid",
      "outputs": [
        {
          "internalType": "bool",
          "name": "",
          "type": "bool"
        }
      ],
      "stateMutability": "view",
      "type": "function"
    },
    {
      "inputs": [
        {
          "internalType": "address",
          "name": "recipient",
          "type": "address"
        },
        {
          "internalType": "string",
          "name": "ipfsCID",
          "type": "string"
        },
        {
          "internalType": "string",
          "name": "credentialType",
          "type": "string"
        },
        {
          "internalType": "uint256",
          "name": "expiresAt",
          "type": "uint256"
        }
      ],
      "name": "issueCredential",
      "outputs": [
        {
          "internalType": "uint256",
          "name": "",
          "type": "uint256"
        }
      ],
      "stateMutability": "nonpayable",
      "type": "function"
    },
    {
      "inputs": [],
      "name": "name",
      "outputs": [
        {
          "internalType": "string",
          "name": "",
          "type": "string"
        }
      ],
      "stateMutability": "view",
      "type": "function"
    },
    {
      "inputs": [
        {
          "internalType": "uint256",
          "name": "tokenId",
          "type": "uint256"
        }
      ],
      "name": "ownerOf",
      "outputs": [
        {
          "internalType": "address",
          "name": "",
          "type": "address"
        }
      ],
      "stateMutability": "view",
      "type": "function"
    },
    {
      "inputs": [
        {
          "internalType": "address",
          "name": "institution",
          "type": "address"
        }
      ],
      "name": "registerIssuer",
      "outputs": [],
      "stateMutability": "nonpayable",
      "type": "function"
    },
    {
      "inputs": [
        {
          "internalType": "address",
          "name": "institution",
          "type": "address"
        }
      ],
      "name": "removeIssuer",
      "outputs": [],
      "stateMutability": "nonpayable",
      "type": "function"
    },
    {
      "inputs": [
        {
          "internalType": "bytes32",
          "name": "role",
          "type": "bytes32"
        },
        {
          "internalType": "address",
          "name": "callerConfirmation",
          "type": "address"
        }
      ],
      "name": "renounceRole",
      "outputs": [],
      "stateMutability": "nonpayable",
      "type": "function"
    },
    {
      "inputs": [
        {
          "internalType": "uint256",
          "name": "tokenId",
          "type": "uint256"
        }
      ],
      "name": "revokeCredential",
      "outputs": [],
      "stateMutability": "nonpayable",
      "type": "function"
    },
    {
      "inputs": [
        {
          "internalType": "bytes32",
          "name": "role",
          "type": "bytes32"
        },
        {
          "internalType": "address",
          "name": "account",
          "type": "address"
        }
      ],
      "name": "revokeRole",
      "outputs": [],
      "stateMutability": "nonpayable",
      "type": "function"
    },
    {
      "inputs": [
        {
          "internalType": "address",
          "name": "from",
          "type": "address"
        },
        {
          "internalType": "address",
          "name": "to",
          "type": "address"
        },
        {
          "internalType": "uint256",
          "name": "tokenId",
          "type": "uint256"
        }
      ],
      "name": "safeTransferFrom",
      "outputs": [],
      "stateMutability": "nonpayable",
      "type": "function"
    },
    {
      "inputs": [
        {
          "internalType": "address",
          "name": "from",
          "type": "address"
        },
        {
          "internalType": "address",
          "name": "to",
          "type": "address"
        },
        {
          "internalType": "uint256",
          "name": "tokenId",
          "type": "uint256"
        },
        {
          "internalType": "bytes",
          "name": "data",
          "type": "bytes"
        }
      ],
      "name": "safeTransferFrom",
      "outputs": [],
      "stateMutability": "nonpayable",
      "type": "function"
    },
    {
      "inputs": [
        {
          "internalType": "address",
          "name": "operator",
          "type": "address"
        },
        {
          "internalType": "bool",
          "name": "approved",
          "type": "bool"
        }
      ],
      "name": "setApprovalForAll",
      "outputs": [],
      "stateMutability": "nonpayable",
      "type": "function"
    },
    {
      "inputs": [
        {
          "internalType": "bytes4",
          "name": "interfaceId",
          "type": "bytes4"
        }
      ],
      "name": "supportsInterface",
      "outputs": [
        {
          "internalType": "bool",
          "name": "",
          "type": "bool"
        }
      ],
      "stateMutability": "view",
      "type": "function"
    },
    {
      "inputs": [],
      "name": "symbol",
      "outputs": [
        {
          "internalType": "string",
          "name": "",
          "type": "string"
        }
      ],
      "stateMutability": "view",
      "type": "function"
    },
    {
      "inputs": [
        {
          "internalType": "uint256",
          "name": "tokenId",
          "type": "uint256"
        }
      ],
      "name": "tokenURI",
      "outputs": [
        {
          "internalType": "string",
          "name": "",
          "type": "string"
        }
      ],
      "stateMutability": "view",
      "type": "function"
    },
    {
      "inputs": [
        {
          "internalType": "address",
          "name": "from",
          "type": "address"
        },
        {
          "internalType": "address",
          "name": "to",
          "type": "address"
        },
        {
          "internalType": "uint256",
          "name": "tokenId",
          "type": "uint256"
        }
      ],
      "name": "transferFrom",
      "outputs": [],
      "stateMutability": "nonpayable",
      "type": "function"
    },
    {
      "inputs": [
        {
          "internalType": "uint256",
          "name": "tokenId",
          "type": "uint256"
        }
      ],
      "name": "unlockTransfer",
      "outputs": [],
      "stateMutability": "nonpayable",
      "type": "function"
    }
  ],
  "bytecode": "0x608060405234801561000f575f5ffd5b506040518060400160405280601581526020017f416363726564436861696e43726564656e7469616c00000000000000000000008152506040518060400160405280600381526020017f4143430000000000000000000000000000000000000000000000000000000000815250815f908161008a91906104bd565b50806001908161009a91906104bd565b5050506100af5f5f1b3361011f60201b60201c565b506100e07fa49807205ce4d355092ef5a8a18f56e8913cf4a201fbe287825b095693c217753361011f60201b60201c565b506101117f114e74f6ea3bd819998f78687bfcb11b140da08e9b7d222fa9c1f1ba1f2aa1223361011f60201b60201c565b50600160088190555061058c565b5f610130838361021560201b60201c565b61020b57600160075f8581526020019081526020015f205f015f8473ffffffffffffffffffffffffffffffffffffffff1673ffffffffffffffffffffffffffffffffffffffff1681526020019081526020015f205f6101000a81548160ff0219169083151502179055506101a861027960201b60201c565b73ffffffffffffffffffffffffffffffffffffffff168273ffffffffffffffffffffffffffffffffffffffff16847f2f8788117e7eff1d82e926ec794901d17c78024a50270940304540a733656f0d60405160405180910390a46001905061020f565b5f90505b92915050565b5f60075f8481526020019081526020015f205f015f8373ffffffffffffffffffffffffffffffffffffffff1673ffffffffffffffffffffffffffffffffffffffff1681526020019081526020015f205f9054906101000a900460ff16905092915050565b5f33905090565b5f81519050919050565b7f4e487b71000000000000000000000000000000000000000000000000000000005f52604160045260245ffd5b7f4e487b71000000000000000000000000000000000000000000000000000000005f52602260045260245ffd5b5f60028204905060018216806102fb57607f821691505b60208210810361030e5761030d6102b7565b5b50919050565b5f819050815f5260205f209050919050565b5f6020601f8301049050919050565b5f82821b905092915050565b5f600883026103707fffffffffffffffffffffffffffffffffffffffffffffffffffffffffffffffff82610335565b61037a8683610335565b95508019841693508086168417925050509392505050565b5f819050919050565b5f819050919050565b5f6103be6103b96103b484610392565b61039b565b610392565b9050919050565b5f819050919050565b6103d7836103a4565b6103eb6103e3826103c5565b848454610341565b825550505050565b5f5f905090565b6104026103f3565b61040d8184846103ce565b505050565b5b81811015610430576104255f826103fa565b600181019050610413565b5050565b601f8211156104755761044681610314565b61044f84610326565b8101602085101561045e578190505b61047261046a85610326565b830182610412565b50505b505050565b5f82821c905092915050565b5f6104955f198460080261047a565b1980831691505092915050565b5f6104ad8383610486565b9150826002028217905092915050565b6104c682610280565b67ffffffffffffffff8111156104df576104de61028a565b5b6104e982546102e4565b6104f4828285610434565b5f60209050601f831160018114610525575f8415610513578287015190505b61051d85826104a2565b865550610584565b601f19841661053386610314565b5f5b8281101561055a57848901518255600182019150602085019450602081019050610535565b868310156105775784890151610573601f891682610486565b8355505b6001600288020188555050505b505050505050565b613690806105995f395ff3fe608060405234801561000f575f5ffd5b50600436106101cd575f3560e01c80637323555f11610102578063b88d4fde116100a0578063d9548e531161006f578063d9548e5314610537578063e0574e3f14610567578063e985e9c51461059c578063f577a500146105cc576101cd565b8063b88d4fde146104b3578063bed62f35146104cf578063c87b56dd146104eb578063d547741f1461051b576101cd565b806391d14854116100dc57806391d148541461042b57806395d89b411461045b578063a217fddf14610479578063a22cb46514610497576101cd565b80637323555f146103d357806375b238fc146103ef57806382aefa241461040d576101cd565b80632c34a8171161016f57806342842e0e1161014957806342842e0e1461033b57806347bc7093146103575780636352211e1461037357806370a08231146103a3576101cd565b80632c34a817146102d35780632f2ff15d1461030357806336568abe1461031f576101cd565b8063095ea7b3116101ab578063095ea7b31461024f5780631b87278d1461026b57806323b872dd14610287578063248a9ca3146102a3576101cd565b806301ffc9a7146101d157806306fdde0314610201578063081812fc1461021f575b5f5ffd5b6101eb60048036038101906101e69190612895565b6105fc565b6040516101f891906128da565b60405180910390f35b61020961060d565b6040516102169190612963565b60405180910390f35b610239600480360381019061023491906129b6565b61069c565b6040516102469190612a20565b60405180910390f35b61026960048036038101906102649190612a63565b6106b7565b005b610285600480360381019061028091906129b6565b6106cd565b005b6102a1600480360381019061029c9190612aa1565b610839565b005b6102bd60048036038101906102b89190612b24565b610938565b6040516102ca9190612b5e565b60405180910390f35b6102ed60048036038101906102e89190612ca3565b610955565b6040516102fa9190612d4e565b60405180910390f35b61031d60048036038101906103189190612d67565b610b28565b005b61033960048036038101906103349190612d67565b610b4a565b005b61035560048036038101906103509190612aa1565b610bc5565b005b610371600480360381019061036c9190612da5565b610be4565b005b61038d600480360381019061038891906129b6565b610c3c565b60405161039a9190612a20565b60405180910390f35b6103bd60048036038101906103b89190612da5565b610c4d565b6040516103ca9190612d4e565b60405180910390f35b6103ed60048036038101906103e89190612da5565b610d03565b005b6103f7610d5b565b6040516104049190612b5e565b60405180910390f35b610415610d7f565b6040516104229190612b5e565b60405180910390f35b61044560048036038101906104409190612d67565b610da3565b60405161045291906128da565b60405180910390f35b610463610e07565b6040516104709190612963565b60405180910390f35b610481610e97565b60405161048e9190612b5e565b60405180910390f35b6104b160048036038101906104ac9190612dfa565b610e9d565b005b6104cd60048036038101906104c89190612ed6565b610eb3565b005b6104e960048036038101906104e491906129b6565b610ed8565b005b610505600480360381019061050091906129b6565b610fa9565b6040516105129190612963565b60405180910390f35b61053560048036038101906105309190612d67565b611025565b005b610551600480360381019061054c91906129b6565b611047565b60405161055e91906128da565b60405180910390f35b610581600480360381019061057c91906129b6565b611100565b60405161059396959493929190612f56565b60405180910390f35b6105b660048036038101906105b19190612fbc565b6111f6565b6040516105c391906128da565b60405180910390f35b6105e660048036038101906105e191906129b6565b611284565b6040516105f391906128da565b60405180910390f35b5f6106068261147a565b9050919050565b60605f805461061b90613027565b80601f016020809104026020016040519081016040528092919081815260200182805461064790613027565b80156106925780601f1061066957610100808354040283529160200191610692565b820191905f5260205f20905b81548152906001019060200180831161067557829003601f168201915b5050505050905090565b5f6106a6826114f3565b506106b082611579565b9050919050565b6106c982826106c46115b2565b6115b9565b5050565b6106f77fa49807205ce4d355092ef5a8a18f56e8913cf4a201fbe287825b095693c2177533610da3565b8061072857506107277f114e74f6ea3bd819998f78687bfcb11b140da08e9b7d222fa9c1f1ba1f2aa12233610da3565b5b610767576040517f08c379a000000000000000000000000000000000000000000000000000000000815260040161075e906130a1565b60405180910390fd5b5f73ffffffffffffffffffffffffffffffffffffffff16610787826115cb565b73ffffffffffffffffffffffffffffffffffffffff16036107dd576040517f08c379a00000000000000000000000000000000000000000000000000000000081526004016107d490613109565b60405180910390fd5b600160095f8381526020019081526020015f206004015f6101000a81548160ff021916908315150217905550807f0d47d5695004d2a4180ebb40037756439184993a0d1c6d4a8ff3a6aa9325607460405160405180910390a250565b5f73ffffffffffffffffffffffffffffffffffffffff168273ffffffffffffffffffffffffffffffffffffffff16036108a9575f6040517f64a0ae920000000000000000000000000000000000000000000000000000000081526004016108a09190612a20565b60405180910390fd5b5f6108bc83836108b76115b2565b611604565b90508373ffffffffffffffffffffffffffffffffffffffff168173ffffffffffffffffffffffffffffffffffffffff1614610932578382826040517f64283d7b00000000000000000000000000000000000000000000000000000000815260040161092993929190613127565b60405180910390fd5b50505050565b5f60075f8381526020019081526020015f20600101549050919050565b5f7f114e74f6ea3bd819998f78687bfcb11b140da08e9b7d222fa9c1f1ba1f2aa122610980816116f5565b5f60085f81548092919061099390613189565b9190505590506109a38782611709565b6109ad81876117fc565b6040518060c001604052803373ffffffffffffffffffffffffffffffffffffffff1681526020018681526020014281526020018581526020015f151581526020015f151581525060095f8381526020019081526020015f205f820151815f015f6101000a81548173ffffffffffffffffffffffffffffffffffffffff021916908373ffffffffffffffffffffffffffffffffffffffff1602179055506020820151816001019081610a5e9190613370565b5060408201518160020155606082015181600301556080820151816004015f6101000a81548160ff02191690831515021790555060a08201518160040160016101000a81548160ff0219169083151502179055509050503373ffffffffffffffffffffffffffffffffffffffff168773ffffffffffffffffffffffffffffffffffffffff16827fd1de861db6c309080253d2536a1767c11ee81a3fb2ab87b4e83aa298c2bcbc8d88604051610b139190612963565b60405180910390a48092505050949350505050565b610b3182610938565b610b3a816116f5565b610b448383611856565b50505050565b610b526115b2565b73ffffffffffffffffffffffffffffffffffffffff168173ffffffffffffffffffffffffffffffffffffffff1614610bb6576040517f6697b23200000000000000000000000000000000000000000000000000000000815260040160405180910390fd5b610bc08282611940565b505050565b610bdf83838360405180602001604052805f815250610eb3565b505050565b7fa49807205ce4d355092ef5a8a18f56e8913cf4a201fbe287825b095693c21775610c0e816116f5565b610c387f114e74f6ea3bd819998f78687bfcb11b140da08e9b7d222fa9c1f1ba1f2aa12283611025565b5050565b5f610c46826114f3565b9050919050565b5f5f73ffffffffffffffffffffffffffffffffffffffff168273ffffffffffffffffffffffffffffffffffffffff1603610cbe575f6040517f89c62b64000000000000000000000000000000000000000000000000000000008152600401610cb59190612a20565b60405180910390fd5b60035f8373ffffffffffffffffffffffffffffffffffffffff1673ffffffffffffffffffffffffffffffffffffffff1681526020019081526020015f20549050919050565b7fa49807205ce4d355092ef5a8a18f56e8913cf4a201fbe287825b095693c21775610d2d816116f5565b610d577f114e74f6ea3bd819998f78687bfcb11b140da08e9b7d222fa9c1f1ba1f2aa12283610b28565b5050565b7fa49807205ce4d355092ef5a8a18f56e8913cf4a201fbe287825b095693c2177581565b7f114e74f6ea3bd819998f78687bfcb11b140da08e9b7d222fa9c1f1ba1f2aa12281565b5f60075f8481526020019081526020015f205f015f8373ffffffffffffffffffffffffffffffffffffffff1673ffffffffffffffffffffffffffffffffffffffff1681526020019081526020015f205f9054906101000a900460ff16905092915050565b606060018054610e1690613027565b80601f0160208091040260200160405190810160405280929190818152602001828054610e4290613027565b8015610e8d5780601f10610e6457610100808354040283529160200191610e8d565b820191905f5260205f20905b815481529060010190602001808311610e7057829003601f168201915b5050505050905090565b5f5f1b81565b610eaf610ea86115b2565b8383611a2a565b5050565b610ebe848484610839565b610ed2610ec96115b2565b85858585611c03565b50505050565b7fa49807205ce4d355092ef5a8a18f56e8913cf4a201fbe287825b095693c21775610f02816116f5565b5f73ffffffffffffffffffffffffffffffffffffffff16610f22836115cb565b73ffffffffffffffffffffffffffffffffffffffff1603610f78576040517f08c379a0000000000000000000000000000000000000000000000000000000008152600401610f6f90613109565b60405180910390fd5b600160095f8481526020019081526020015f2060040160016101000a81548160ff0219169083151502179055505050565b6060610fb4826114f3565b505f610fbe611daf565b90505f610fca84611dc5565b90505f825103610fde578092505050611020565b5f81511115611012578181604051602001610ffa929190613479565b60405160208183030381529060405292505050611020565b61101b84611e66565b925050505b919050565b61102e82610938565b611037816116f5565b6110418383611940565b50505050565b5f5f73ffffffffffffffffffffffffffffffffffffffff16611068836115cb565b73ffffffffffffffffffffffffffffffffffffffff16036110be576040517f08c379a00000000000000000000000000000000000000000000000000000000081526004016110b590613109565b60405180910390fd5b5f60095f8481526020019081526020015f2060030154036110e1575f90506110fb565b60095f8381526020019081526020015f2060030154421190505b919050565b6009602052805f5260405f205f91509050805f015f9054906101000a900473ffffffffffffffffffffffffffffffffffffffff169080600101805461114490613027565b80601f016020809104026020016040519081016040528092919081815260200182805461117090613027565b80156111bb5780601f10611192576101008083540402835291602001916111bb565b820191905f5260205f20905b81548152906001019060200180831161119e57829003601f168201915b505050505090806002015490806003015490806004015f9054906101000a900460ff16908060040160019054906101000a900460ff16905086565b5f60055f8473ffffffffffffffffffffffffffffffffffffffff1673ffffffffffffffffffffffffffffffffffffffff1681526020019081526020015f205f8373ffffffffffffffffffffffffffffffffffffffff1673ffffffffffffffffffffffffffffffffffffffff1681526020019081526020015f205f9054906101000a900460ff16905092915050565b5f5f73ffffffffffffffffffffffffffffffffffffffff166112a5836115cb565b73ffffffffffffffffffffffffffffffffffffffff16036112fb576040517f08c379a00000000000000000000000000000000000000000000000000000000081526004016112f290613109565b60405180910390fd5b5f60095f8481526020019081526020015f206040518060c00160405290815f82015f9054906101000a900473ffffffffffffffffffffffffffffffffffffffff1673ffffffffffffffffffffffffffffffffffffffff1673ffffffffffffffffffffffffffffffffffffffff16815260200160018201805461137c90613027565b80601f01602080910402602001604051908101604052809291908181526020018280546113a890613027565b80156113f35780601f106113ca576101008083540402835291602001916113f3565b820191905f5260205f20905b8154815290600101906020018083116113d657829003601f168201915b505050505081526020016002820154815260200160038201548152602001600482015f9054906101000a900460ff161515151581526020016004820160019054906101000a900460ff16151515158152505090505f5f82606001511415801561145f5750816060015142115b90508160800151158015611471575080155b92505050919050565b5f7f7965db0b000000000000000000000000000000000000000000000000000000007bffffffffffffffffffffffffffffffffffffffffffffffffffffffff1916827bffffffffffffffffffffffffffffffffffffffffffffffffffffffff191614806114ec57506114eb82611ecc565b5b9050919050565b5f5f6114fe836115cb565b90505f73ffffffffffffffffffffffffffffffffffffffff168173ffffffffffffffffffffffffffffffffffffffff160361157057826040517f7e2732890000000000000000000000000000000000000000000000000000000081526004016115679190612d4e565b60405180910390fd5b80915050919050565b5f60045f8381526020019081526020015f205f9054906101000a900473ffffffffffffffffffffffffffffffffffffffff169050919050565b5f33905090565b6115c68383836001611f2c565b505050565b5f60025f8381526020019081526020015f205f9054906101000a900473ffffffffffffffffffffffffffffffffffffffff169050919050565b5f5f61160f846115cb565b90505f73ffffffffffffffffffffffffffffffffffffffff168173ffffffffffffffffffffffffffffffffffffffff161415801561167957505f73ffffffffffffffffffffffffffffffffffffffff168573ffffffffffffffffffffffffffffffffffffffff1614155b156116e05760095f8581526020019081526020015f2060040160019054906101000a900460ff166116df576040517f08c379a00000000000000000000000000000000000000000000000000000000081526004016116d6906134e6565b60405180910390fd5b5b6116eb8585856120eb565b9150509392505050565b611706816117016115b2565b6122f6565b50565b5f73ffffffffffffffffffffffffffffffffffffffff168273ffffffffffffffffffffffffffffffffffffffff1603611779575f6040517f64a0ae920000000000000000000000000000000000000000000000000000000081526004016117709190612a20565b60405180910390fd5b5f61178583835f611604565b90505f73ffffffffffffffffffffffffffffffffffffffff168173ffffffffffffffffffffffffffffffffffffffff16146117f7575f6040517f73c6ac6e0000000000000000000000000000000000000000000000000000000081526004016117ee9190612a20565b60405180910390fd5b505050565b8060065f8481526020019081526020015f20908161181a9190613370565b507ff8e1a15aba9398e019f0b49df1a4fde98ee17ae345cb5f6b5e2c27f5033e8ce78260405161184a9190612d4e565b60405180910390a15050565b5f6118618383610da3565b61193657600160075f8581526020019081526020015f205f015f8473ffffffffffffffffffffffffffffffffffffffff1673ffffffffffffffffffffffffffffffffffffffff1681526020019081526020015f205f6101000a81548160ff0219169083151502179055506118d36115b2565b73ffffffffffffffffffffffffffffffffffffffff168273ffffffffffffffffffffffffffffffffffffffff16847f2f8788117e7eff1d82e926ec794901d17c78024a50270940304540a733656f0d60405160405180910390a46001905061193a565b5f90505b92915050565b5f61194b8383610da3565b15611a20575f60075f8581526020019081526020015f205f015f8473ffffffffffffffffffffffffffffffffffffffff1673ffffffffffffffffffffffffffffffffffffffff1681526020019081526020015f205f6101000a81548160ff0219169083151502179055506119bd6115b2565b73ffffffffffffffffffffffffffffffffffffffff168273ffffffffffffffffffffffffffffffffffffffff16847ff6391f5c32d9c69d2a47ea670b442974b53935d1edc7fd64eb21e047a839171b60405160405180910390a460019050611a24565b5f90505b92915050565b5f73ffffffffffffffffffffffffffffffffffffffff168373ffffffffffffffffffffffffffffffffffffffff1603611a9a575f6040517fa9fbf51f000000000000000000000000000000000000000000000000000000008152600401611a919190612a20565b60405180910390fd5b5f73ffffffffffffffffffffffffffffffffffffffff168273ffffffffffffffffffffffffffffffffffffffff1603611b0a57816040517f5b08ba18000000000000000000000000000000000000000000000000000000008152600401611b019190612a20565b60405180910390fd5b8060055f8573ffffffffffffffffffffffffffffffffffffffff1673ffffffffffffffffffffffffffffffffffffffff1681526020019081526020015f205f8473ffffffffffffffffffffffffffffffffffffffff1673ffffffffffffffffffffffffffffffffffffffff1681526020019081526020015f205f6101000a81548160ff0219169083151502179055508173ffffffffffffffffffffffffffffffffffffffff168373ffffffffffffffffffffffffffffffffffffffff167f17307eab39ab6107e8899845ad3d59bd9653f200f220920489ca2b5937696c3183604051611bf691906128da565b60405180910390a3505050565b5f8373ffffffffffffffffffffffffffffffffffffffff163b1115611da8578273ffffffffffffffffffffffffffffffffffffffff1663150b7a02868685856040518563ffffffff1660e01b8152600401611c619493929190613556565b6020604051808303815f875af1925050508015611c9c57506040513d601f19601f82011682018060405250810190611c9991906135b4565b60015b611d1d573d805f8114611cca576040519150601f19603f3d011682016040523d82523d5f602084013e611ccf565b606091505b505f815103611d1557836040517f64a0ae92000000000000000000000000000000000000000000000000000000008152600401611d0c9190612a20565b60405180910390fd5b805160208201fd5b63150b7a0260e01b7bffffffffffffffffffffffffffffffffffffffffffffffffffffffff1916817bffffffffffffffffffffffffffffffffffffffffffffffffffffffff191614611da657836040517f64a0ae92000000000000000000000000000000000000000000000000000000008152600401611d9d9190612a20565b60405180910390fd5b505b5050505050565b606060405180602001604052805f815250905090565b606060065f8381526020019081526020015f208054611de390613027565b80601f0160208091040260200160405190810160405280929190818152602001828054611e0f90613027565b8015611e5a5780601f10611e3157610100808354040283529160200191611e5a565b820191905f5260205f20905b815481529060010190602001808311611e3d57829003601f168201915b50505050509050919050565b6060611e71826114f3565b505f611e7b611daf565b90505f815111611e995760405180602001604052805f815250611ec4565b80611ea384612347565b604051602001611eb4929190613479565b6040516020818303038152906040525b915050919050565b5f634906490660e01b7bffffffffffffffffffffffffffffffffffffffffffffffffffffffff1916827bffffffffffffffffffffffffffffffffffffffffffffffffffffffff19161480611f255750611f2482612411565b5b9050919050565b8080611f6457505f73ffffffffffffffffffffffffffffffffffffffff168273ffffffffffffffffffffffffffffffffffffffff1614155b15612096575f611f73846114f3565b90505f73ffffffffffffffffffffffffffffffffffffffff168373ffffffffffffffffffffffffffffffffffffffff1614158015611fdd57508273ffffffffffffffffffffffffffffffffffffffff168173ffffffffffffffffffffffffffffffffffffffff1614155b8015611ff05750611fee81846111f6565b155b1561203257826040517fa9fbf51f0000000000000000000000000000000000000000000000000000000081526004016120299190612a20565b60405180910390fd5b811561209457838573ffffffffffffffffffffffffffffffffffffffff168273ffffffffffffffffffffffffffffffffffffffff167f8c5be1e5ebec7d5bd14f71427d1e84f3dd0314c0f7b2291e5b200ac8c7c3b92560405160405180910390a45b505b8360045f8581526020019081526020015f205f6101000a81548173ffffffffffffffffffffffffffffffffffffffff021916908373ffffffffffffffffffffffffffffffffffffffff16021790555050505050565b5f5f6120f6846115cb565b90505f73ffffffffffffffffffffffffffffffffffffffff168373ffffffffffffffffffffffffffffffffffffffff1614612137576121368184866124f2565b5b5f73ffffffffffffffffffffffffffffffffffffffff168173ffffffffffffffffffffffffffffffffffffffff16146121c2576121765f855f5f611f2c565b600160035f8373ffffffffffffffffffffffffffffffffffffffff1673ffffffffffffffffffffffffffffffffffffffff1681526020019081526020015f205f82825403925050819055505b5f73ffffffffffffffffffffffffffffffffffffffff168573ffffffffffffffffffffffffffffffffffffffff161461224157600160035f8773ffffffffffffffffffffffffffffffffffffffff1673ffffffffffffffffffffffffffffffffffffffff1681526020019081526020015f205f82825401925050819055505b8460025f8681526020019081526020015f205f6101000a81548173ffffffffffffffffffffffffffffffffffffffff021916908373ffffffffffffffffffffffffffffffffffffffff160217905550838573ffffffffffffffffffffffffffffffffffffffff168273ffffffffffffffffffffffffffffffffffffffff167fddf252ad1be2c89b69c2b068fc378daa952ba7f163c4a11628f55a4df523b3ef60405160405180910390a4809150509392505050565b6123008282610da3565b6123435780826040517fe2517d3f00000000000000000000000000000000000000000000000000000000815260040161233a9291906135df565b60405180910390fd5b5050565b60605f6001612355846125b5565b0190505f8167ffffffffffffffff81111561237357612372612b7f565b5b6040519080825280601f01601f1916602001820160405280156123a55781602001600182028036833780820191505090505b5090505f82602083010190505b600115612406578080600190039150507f3031323334353637383961626364656600000000000000000000000000000000600a86061a8153600a85816123fb576123fa613606565b5b0494505f85036123b2575b819350505050919050565b5f7f80ac58cd000000000000000000000000000000000000000000000000000000007bffffffffffffffffffffffffffffffffffffffffffffffffffffffff1916827bffffffffffffffffffffffffffffffffffffffffffffffffffffffff191614806124db57507f5b5e139f000000000000000000000000000000000000000000000000000000007bffffffffffffffffffffffffffffffffffffffffffffffffffffffff1916827bffffffffffffffffffffffffffffffffffffffffffffffffffffffff1916145b806124eb57506124ea82612706565b5b9050919050565b6124fd83838361276f565b6125b0575f73ffffffffffffffffffffffffffffffffffffffff168373ffffffffffffffffffffffffffffffffffffffff160361257157806040517f7e2732890000000000000000000000000000000000000000000000000000000081526004016125689190612d4e565b60405180910390fd5b81816040517f177e802f0000000000000000000000000000000000000000000000000000000081526004016125a7929190613633565b60405180910390fd5b505050565b5f5f5f90507a184f03e93ff9f4daa797ed6e38ed64bf6a1f0100000000000000008310612611577a184f03e93ff9f4daa797ed6e38ed64bf6a1f010000000000000000838161260757612606613606565b5b0492506040810190505b6d04ee2d6d415b85acef8100000000831061264e576d04ee2d6d415b85acef8100000000838161264457612643613606565b5b0492506020810190505b662386f26fc10000831061267d57662386f26fc10000838161267357612672613606565b5b0492506010810190505b6305f5e10083106126a6576305f5e100838161269c5761269b613606565b5b0492506008810190505b61271083106126cb5761271083816126c1576126c0613606565b5b0492506004810190505b606483106126ee57606483816126e4576126e3613606565b5b0492506002810190505b600a83106126fd576001810190505b80915050919050565b5f7f01ffc9a7000000000000000000000000000000000000000000000000000000007bffffffffffffffffffffffffffffffffffffffffffffffffffffffff1916827bffffffffffffffffffffffffffffffffffffffffffffffffffffffff1916149050919050565b5f5f73ffffffffffffffffffffffffffffffffffffffff168373ffffffffffffffffffffffffffffffffffffffff161415801561282657508273ffffffffffffffffffffffffffffffffffffffff168473ffffffffffffffffffffffffffffffffffffffff1614806127e757506127e684846111f6565b5b8061282557508273ffffffffffffffffffffffffffffffffffffffff1661280d83611579565b73ffffffffffffffffffffffffffffffffffffffff16145b5b90509392505050565b5f604051905090565b5f5ffd5b5f5ffd5b5f7fffffffff0000000000000000000000000000000000000000000000000000000082169050919050565b61287481612840565b811461287e575f5ffd5b50565b5f8135905061288f8161286b565b92915050565b5f602082840312156128aa576128a9612838565b5b5f6128b784828501612881565b91505092915050565b5f8115159050919050565b6128d4816128c0565b82525050565b5f6020820190506128ed5f8301846128cb565b92915050565b5f81519050919050565b5f82825260208201905092915050565b8281835e5f83830152505050565b5f601f19601f8301169050919050565b5f612935826128f3565b61293f81856128fd565b935061294f81856020860161290d565b6129588161291b565b840191505092915050565b5f6020820190508181035f83015261297b818461292b565b905092915050565b5f819050919050565b61299581612983565b811461299f575f5ffd5b50565b5f813590506129b08161298c565b92915050565b5f602082840312156129cb576129ca612838565b5b5f6129d8848285016129a2565b91505092915050565b5f73ffffffffffffffffffffffffffffffffffffffff82169050919050565b5f612a0a826129e1565b9050919050565b612a1a81612a00565b82525050565b5f602082019050612a335f830184612a11565b92915050565b612a4281612a00565b8114612a4c575f5ffd5b50565b5f81359050612a5d81612a39565b92915050565b5f5f60408385031215612a7957612a78612838565b5b5f612a8685828601612a4f565b9250506020612a97858286016129a2565b9150509250929050565b5f5f5f60608486031215612ab857612ab7612838565b5b5f612ac586828701612a4f565b9350506020612ad686828701612a4f565b9250506040612ae7868287016129a2565b9150509250925092565b5f819050919050565b612b0381612af1565b8114612b0d575f5ffd5b50565b5f81359050612b1e81612afa565b92915050565b5f60208284031215612b3957612b38612838565b5b5f612b4684828501612b10565b91505092915050565b612b5881612af1565b82525050565b5f602082019050612b715f830184612b4f565b92915050565b5f5ffd5b5f5ffd5b7f4e487b71000000000000000000000000000000000000000000000000000000005f52604160045260245ffd5b612bb58261291b565b810181811067ffffffffffffffff82111715612bd457612bd3612b7f565b5b80604052505050565b5f612be661282f565b9050612bf28282612bac565b919050565b5f67ffffffffffffffff821115612c1157612c10612b7f565b5b612c1a8261291b565b9050602081019050919050565b828183375f83830152505050565b5f612c47612c4284612bf7565b612bdd565b905082815260208101848484011115612c6357612c62612b7b565b5b612c6e848285612c27565b509392505050565b5f82601f830112612c8a57612c89612b77565b5b8135612c9a848260208601612c35565b91505092915050565b5f5f5f5f60808587031215612cbb57612cba612838565b5b5f612cc887828801612a4f565b945050602085013567ffffffffffffffff811115612ce957612ce861283c565b5b612cf587828801612c76565b935050604085013567ffffffffffffffff811115612d1657612d1561283c565b5b612d2287828801612c76565b9250506060612d33878288016129a2565b91505092959194509250565b612d4881612983565b82525050565b5f602082019050612d615f830184612d3f565b92915050565b5f5f60408385031215612d7d57612d7c612838565b5b5f612d8a85828601612b10565b9250506020612d9b85828601612a4f565b9150509250929050565b5f60208284031215612dba57612db9612838565b5b5f612dc784828501612a4f565b91505092915050565b612dd9816128c0565b8114612de3575f5ffd5b50565b5f81359050612df481612dd0565b92915050565b5f5f60408385031215612e1057612e0f612838565b5b5f612e1d85828601612a4f565b9250506020612e2e85828601612de6565b9150509250929050565b5f67ffffffffffffffff821115612e5257612e51612b7f565b5b612e5b8261291b565b9050602081019050919050565b5f612e7a612e7584612e38565b612bdd565b905082815260208101848484011115612e9657612e95612b7b565b5b612ea1848285612c27565b509392505050565b5f82601f830112612ebd57612ebc612b77565b5b8135612ecd848260208601612e68565b91505092915050565b5f5f5f5f60808587031215612eee57612eed612838565b5b5f612efb87828801612a4f565b9450506020612f0c87828801612a4f565b9350506040612f1d878288016129a2565b925050606085013567ffffffffffffffff811115612f3e57612f3d61283c565b5b612f4a87828801612ea9565b91505092959194509250565b5f60c082019050612f695f830189612a11565b8181036020830152612f7b818861292b565b9050612f8a6040830187612d3f565b612f976060830186612d3f565b612fa460808301856128cb565b612fb160a08301846128cb565b979650505050505050565b5f5f60408385031215612fd257612fd1612838565b5b5f612fdf85828601612a4f565b9250506020612ff085828601612a4f565b9150509250929050565b7f4e487b71000000000000000000000000000000000000000000000000000000005f52602260045260245ffd5b5f600282049050600182168061303e57607f821691505b60208210810361305157613050612ffa565b5b50919050565b7f43616c6c6572206973206e6f742061646d696e206f72206973737565720000005f82015250565b5f61308b601d836128fd565b915061309682613057565b602082019050919050565b5f6020820190508181035f8301526130b88161307f565b9050919050565b7f546f6b656e20646f6573206e6f742065786973740000000000000000000000005f82015250565b5f6130f36014836128fd565b91506130fe826130bf565b602082019050919050565b5f6020820190508181035f830152613120816130e7565b9050919050565b5f60608201905061313a5f830186612a11565b6131476020830185612d3f565b6131546040830184612a11565b949350505050565b7f4e487b71000000000000000000000000000000000000000000000000000000005f52601160045260245ffd5b5f61319382612983565b91507fffffffffffffffffffffffffffffffffffffffffffffffffffffffffffffffff82036131c5576131c461315c565b5b600182019050919050565b5f819050815f5260205f209050919050565b5f6020601f8301049050919050565b5f82821b905092915050565b5f6008830261322c7fffffffffffffffffffffffffffffffffffffffffffffffffffffffffffffffff826131f1565b61323686836131f1565b95508019841693508086168417925050509392505050565b5f819050919050565b5f61327161326c61326784612983565b61324e565b612983565b9050919050565b5f819050919050565b61328a83613257565b61329e61329682613278565b8484546131fd565b825550505050565b5f5f905090565b6132b56132a6565b6132c0818484613281565b505050565b5b818110156132e3576132d85f826132ad565b6001810190506132c6565b5050565b601f821115613328576132f9816131d0565b613302846131e2565b81016020851015613311578190505b61332561331d856131e2565b8301826132c5565b50505b505050565b5f82821c905092915050565b5f6133485f198460080261332d565b1980831691505092915050565b5f6133608383613339565b9150826002028217905092915050565b613379826128f3565b67ffffffffffffffff81111561339257613391612b7f565b5b61339c8254613027565b6133a78282856132e7565b5f60209050601f8311600181146133d8575f84156133c6578287015190505b6133d08582613355565b865550613437565b601f1984166133e6866131d0565b5f5b8281101561340d578489015182556001820191506020850194506020810190506133e8565b8683101561342a5784890151613426601f891682613339565b8355505b6001600288020188555050505b505050505050565b5f81905092915050565b5f613453826128f3565b61345d818561343f565b935061346d81856020860161290d565b80840191505092915050565b5f6134848285613449565b91506134908284613449565b91508190509392505050565b7f43726564656e7469616c206973206e6f74207472616e7366657261626c6500005f82015250565b5f6134d0601e836128fd565b91506134db8261349c565b602082019050919050565b5f6020820190508181035f8301526134fd816134c4565b9050919050565b5f81519050919050565b5f82825260208201905092915050565b5f61352882613504565b613532818561350e565b935061354281856020860161290d565b61354b8161291b565b840191505092915050565b5f6080820190506135695f830187612a11565b6135766020830186612a11565b6135836040830185612d3f565b8181036060830152613595818461351e565b905095945050505050565b5f815190506135ae8161286b565b92915050565b5f602082840312156135c9576135c8612838565b5b5f6135d6848285016135a0565b91505092915050565b5f6040820190506135f25f830185612a11565b6135ff6020830184612b4f565b9392505050565b7f4e487b71000000000000000000000000000000000000000000000000000000005f52601260045260245ffd5b5f6040820190506136465f830185612a11565b6136536020830184612d3f565b939250505056fea264697066735822122019bd43f253ef9beb2617ca44ca84c39332071201d6e0abc25e094b9b6e9e9d1564736f6c634300081c0033",
  "linkReferences": {},
  "deployedLinkReferences": {}
}